{
  "contractName": "AuctionSystem",
  "abi": [
    {
      "anonymous": false,
      "inputs": [
        {
          "indexed": false,
          "internalType": "uint256",
          "name": "auctionId",
          "type": "uint256"
        },
        {
          "indexed": false,
          "internalType": "address",
          "name": "winner",
          "type": "address"
        },
        {
          "indexed": false,
          "internalType": "uint256",
          "name": "amount",
          "type": "uint256"
        }
      ],
      "name": "AuctionClosed",
      "type": "event"
    },
    {
      "anonymous": false,
      "inputs": [
        {
          "indexed": false,
          "internalType": "uint256",
          "name": "auctionId",
          "type": "uint256"
        },
        {
          "indexed": false,
          "internalType": "string",
          "name": "name",
          "type": "string"
        },
        {
          "indexed": false,
          "internalType": "string",
          "name": "description",
          "type": "string"
        },
        {
          "indexed": false,
          "internalType": "string",
          "name": "imageURL",
          "type": "string"
        }
      ],
      "name": "AuctionCreated",
      "type": "event"
    },
    {
      "anonymous": false,
      "inputs": [
        {
          "indexed": false,
          "internalType": "uint256",
          "name": "auctionId",
          "type": "uint256"
        },
        {
          "indexed": false,
          "internalType": "address",
          "name": "bidder",
          "type": "address"
        },
        {
          "indexed": false,
          "internalType": "uint256",
          "name": "amount",
          "type": "uint256"
        }
      ],
      "name": "NewBid",
      "type": "event"
    },
    {
      "inputs": [
        {
          "internalType": "uint256",
          "name": "",
          "type": "uint256"
        }
      ],
      "name": "auctionIds",
      "outputs": [
        {
          "internalType": "uint256",
          "name": "",
          "type": "uint256"
        }
      ],
      "stateMutability": "view",
      "type": "function",
      "constant": true
    },
    {
      "inputs": [
        {
          "internalType": "uint256",
          "name": "",
          "type": "uint256"
        }
      ],
      "name": "auctions",
      "outputs": [
        {
          "internalType": "uint256",
          "name": "id",
          "type": "uint256"
        },
        {
          "internalType": "string",
          "name": "name",
          "type": "string"
        },
        {
          "internalType": "string",
          "name": "description",
          "type": "string"
        },
        {
          "internalType": "string",
          "name": "imageURL",
          "type": "string"
        },
        {
          "internalType": "address",
          "name": "owner",
          "type": "address"
        },
        {
          "internalType": "address",
          "name": "highestBidder",
          "type": "address"
        },
        {
          "internalType": "uint256",
          "name": "highestBid",
          "type": "uint256"
        },
        {
          "internalType": "bool",
          "name": "isActive",
          "type": "bool"
        }
      ],
      "stateMutability": "view",
      "type": "function",
      "constant": true
    },
    {
      "inputs": [],
      "name": "nextAuctionId",
      "outputs": [
        {
          "internalType": "uint256",
          "name": "",
          "type": "uint256"
        }
      ],
      "stateMutability": "view",
      "type": "function",
      "constant": true
    },
    {
      "inputs": [
        {
          "internalType": "string",
          "name": "_name",
          "type": "string"
        },
        {
          "internalType": "string",
          "name": "_description",
          "type": "string"
        },
        {
          "internalType": "string",
          "name": "_imageURL",
          "type": "string"
        }
      ],
      "name": "createAuction",
      "outputs": [],
      "stateMutability": "nonpayable",
      "type": "function"
    },
    {
      "inputs": [],
      "name": "getAllActiveAuctions",
      "outputs": [
        {
          "components": [
            {
              "internalType": "uint256",
              "name": "id",
              "type": "uint256"
            },
            {
              "internalType": "string",
              "name": "name",
              "type": "string"
            },
            {
              "internalType": "string",
              "name": "description",
              "type": "string"
            },
            {
              "internalType": "string",
              "name": "imageURL",
              "type": "string"
            },
            {
              "internalType": "address",
              "name": "owner",
              "type": "address"
            },
            {
              "internalType": "address",
              "name": "highestBidder",
              "type": "address"
            },
            {
              "internalType": "uint256",
              "name": "highestBid",
              "type": "uint256"
            },
            {
              "internalType": "bool",
              "name": "isActive",
              "type": "bool"
            },
            {
              "components": [
                {
                  "internalType": "address",
                  "name": "bidder",
                  "type": "address"
                },
                {
                  "internalType": "uint256",
                  "name": "amount",
                  "type": "uint256"
                }
              ],
              "internalType": "struct AuctionSystem.Bid[]",
              "name": "bidHistory",
              "type": "tuple[]"
            }
          ],
          "internalType": "struct AuctionSystem.Auction[]",
          "name": "",
          "type": "tuple[]"
        }
      ],
      "stateMutability": "view",
      "type": "function",
      "constant": true
    },
    {
      "inputs": [
        {
          "internalType": "uint256",
          "name": "_auctionId",
          "type": "uint256"
        }
      ],
      "name": "closeAuction",
      "outputs": [],
      "stateMutability": "nonpayable",
      "type": "function"
    },
    {
      "inputs": [
        {
          "internalType": "uint256",
          "name": "_auctionId",
          "type": "uint256"
        }
      ],
      "name": "getAuction",
      "outputs": [
        {
          "components": [
            {
              "internalType": "uint256",
              "name": "id",
              "type": "uint256"
            },
            {
              "internalType": "string",
              "name": "name",
              "type": "string"
            },
            {
              "internalType": "string",
              "name": "description",
              "type": "string"
            },
            {
              "internalType": "string",
              "name": "imageURL",
              "type": "string"
            },
            {
              "internalType": "address",
              "name": "owner",
              "type": "address"
            },
            {
              "internalType": "address",
              "name": "highestBidder",
              "type": "address"
            },
            {
              "internalType": "uint256",
              "name": "highestBid",
              "type": "uint256"
            },
            {
              "internalType": "bool",
              "name": "isActive",
              "type": "bool"
            },
            {
              "components": [
                {
                  "internalType": "address",
                  "name": "bidder",
                  "type": "address"
                },
                {
                  "internalType": "uint256",
                  "name": "amount",
                  "type": "uint256"
                }
              ],
              "internalType": "struct AuctionSystem.Bid[]",
              "name": "bidHistory",
              "type": "tuple[]"
            }
          ],
          "internalType": "struct AuctionSystem.Auction",
          "name": "",
          "type": "tuple"
        }
      ],
      "stateMutability": "view",
      "type": "function",
      "constant": true
    },
    {
      "inputs": [
        {
          "internalType": "uint256",
          "name": "_auctionId",
          "type": "uint256"
        }
      ],
      "name": "bid",
      "outputs": [],
      "stateMutability": "payable",
      "type": "function",
      "payable": true
    },
    {
      "inputs": [
        {
          "internalType": "uint256",
          "name": "_auctionId",
          "type": "uint256"
        }
      ],
      "name": "getBidHistory",
      "outputs": [
        {
          "components": [
            {
              "internalType": "address",
              "name": "bidder",
              "type": "address"
            },
            {
              "internalType": "uint256",
              "name": "amount",
              "type": "uint256"
            }
          ],
          "internalType": "struct AuctionSystem.Bid[]",
          "name": "",
          "type": "tuple[]"
        }
      ],
      "stateMutability": "view",
      "type": "function",
      "constant": true
    }
  ],
  "bytecode": "0x608060405234801561001057600080fd5b506121b3806100206000396000f3fe6080604052600436106100865760003560e01c8063571a26a011610059578063571a26a0146101385780635a3fcafa1461017c57806378bd7935146101a5578063c0738dce146101e2578063fc5284821461021f57610086565b8063236ed8f31461008b5780632a6433be146100b45780632dee466d146100f1578063454a2ab31461011c575b600080fd5b34801561009757600080fd5b506100b260048036038101906100ad919061170c565b61024a565b005b3480156100c057600080fd5b506100db60048036038101906100d6919061170c565b610420565b6040516100e89190611d73565b60405180910390f35b3480156100fd57600080fd5b50610106610444565b6040516101139190611c8d565b60405180910390f35b6101366004803603810190610131919061170c565b610a03565b005b34801561014457600080fd5b5061015f600480360381019061015a919061170c565b610cae565b604051610173989796959493929190611e1f565b60405180910390f35b34801561018857600080fd5b506101a3600480360381019061019e9190611675565b610edb565b005b3480156101b157600080fd5b506101cc60048036038101906101c7919061170c565b61107e565b6040516101d99190611d51565b60405180910390f35b3480156101ee57600080fd5b506102096004803603810190610204919061170c565b611401565b6040516102169190611caf565b60405180910390f35b34801561022b57600080fd5b506102346114d5565b6040516102419190611d73565b60405180910390f35b600080600083815260200190815260200160002090508060070160009054906101000a900460ff166102b1576040517f08c379a00000000000000000000000000000000000000000000000000000000081526004016102a890611d31565b60405180910390fd5b8060040160009054906101000a900473ffffffffffffffffffffffffffffffffffffffff1673ffffffffffffffffffffffffffffffffffffffff163373ffffffffffffffffffffffffffffffffffffffff1614610343576040517f08c379a000000000000000000000000000000000000000000000000000000000815260040161033a90611d11565b60405180910390fd5b60008160070160006101000a81548160ff021916908315150217905550600073ffffffffffffffffffffffffffffffffffffffff168160050160009054906101000a900473ffffffffffffffffffffffffffffffffffffffff1673ffffffffffffffffffffffffffffffffffffffff161461041c577f0fd59af99488577e947ca6af8145cd0b7acca6ab513674da434824527ed13251828260050160009054906101000a900473ffffffffffffffffffffffffffffffffffffffff16836006015460405161041393929190611d8e565b60405180910390a15b5050565b6001818154811061043057600080fd5b906000526020600020016000915090505481565b60606000805b6001805490508110156104e55760008060018381548110610494577f4e487b7100000000000000000000000000000000000000000000000000000000600052603260045260246000fd5b9060005260206000200154815260200190815260200160002060070160009054906101000a900460ff16156104d25781806104ce9061207f565b9250505b80806104dd9061207f565b91505061044a565b5060008167ffffffffffffffff811115610528577f4e487b7100000000000000000000000000000000000000000000000000000000600052604160045260246000fd5b60405190808252806020026020018201604052801561056157816020015b61054e6114db565b8152602001906001900390816105465790505b5090506000805b6001805490508110156109f957600080600183815481106105b2577f4e487b7100000000000000000000000000000000000000000000000000000000600052603260045260246000fd5b9060005260206000200154815260200190815260200160002060070160009054906101000a900460ff16156109e6576000806001838154811061061e577f4e487b7100000000000000000000000000000000000000000000000000000000600052603260045260246000fd5b90600052602060002001548152602001908152602001600020604051806101200160405290816000820154815260200160018201805461065d9061204d565b80601f01602080910402602001604051908101604052809291908181526020018280546106899061204d565b80156106d65780601f106106ab576101008083540402835291602001916106d6565b820191906000526020600020905b8154815290600101906020018083116106b957829003601f168201915b505050505081526020016002820180546106ef9061204d565b80601f016020809104026020016040519081016040528092919081815260200182805461071b9061204d565b80156107685780601f1061073d57610100808354040283529160200191610768565b820191906000526020600020905b81548152906001019060200180831161074b57829003601f168201915b505050505081526020016003820180546107819061204d565b80601f01602080910402602001604051908101604052809291908181526020018280546107ad9061204d565b80156107fa5780601f106107cf576101008083540402835291602001916107fa565b820191906000526020600020905b8154815290600101906020018083116107dd57829003601f168201915b505050505081526020016004820160009054906101000a900473ffffffffffffffffffffffffffffffffffffffff1673ffffffffffffffffffffffffffffffffffffffff1673ffffffffffffffffffffffffffffffffffffffff1681526020016005820160009054906101000a900473ffffffffffffffffffffffffffffffffffffffff1673ffffffffffffffffffffffffffffffffffffffff1673ffffffffffffffffffffffffffffffffffffffff168152602001600682015481526020016007820160009054906101000a900460ff1615151515815260200160088201805480602002602001604051908101604052809291908181526020016000905b8282101561098b57838290600052602060002090600202016040518060400160405290816000820160009054906101000a900473ffffffffffffffffffffffffffffffffffffffff1673ffffffffffffffffffffffffffffffffffffffff1673ffffffffffffffffffffffffffffffffffffffff168152602001600182015481525050815260200190600101906108f9565b50505050815250508383815181106109cc577f4e487b7100000000000000000000000000000000000000000000000000000000600052603260045260246000fd5b602002602001018190525081806109e29061207f565b9250505b80806109f19061207f565b915050610568565b5081935050505090565b600080600083815260200190815260200160002090508060070160009054906101000a900460ff16610a6a576040517f08c379a0000000000000000000000000000000000000000000000000000000008152600401610a6190611cd1565b60405180910390fd5b80600601543411610ab0576040517f08c379a0000000000000000000000000000000000000000000000000000000008152600401610aa790611cf1565b60405180910390fd5b600073ffffffffffffffffffffffffffffffffffffffff168160050160009054906101000a900473ffffffffffffffffffffffffffffffffffffffff1673ffffffffffffffffffffffffffffffffffffffff1614610b78578060050160009054906101000a900473ffffffffffffffffffffffffffffffffffffffff1673ffffffffffffffffffffffffffffffffffffffff166108fc82600601549081150290604051600060405180830381858888f19350505050158015610b76573d6000803e3d6000fd5b505b338160050160006101000a81548173ffffffffffffffffffffffffffffffffffffffff021916908373ffffffffffffffffffffffffffffffffffffffff1602179055503481600601819055508060080160405180604001604052803373ffffffffffffffffffffffffffffffffffffffff16815260200134815250908060018154018082558091505060019003906000526020600020906002020160009091909190915060008201518160000160006101000a81548173ffffffffffffffffffffffffffffffffffffffff021916908373ffffffffffffffffffffffffffffffffffffffff1602179055506020820151816001015550507f558a0d5d5468d74b0db24c74eb348b42271c2ebb4c9e953ced38aaed95fa4361823334604051610ca293929190611d8e565b60405180910390a15050565b6000602052806000526040600020600091509050806000015490806001018054610cd79061204d565b80601f0160208091040260200160405190810160405280929190818152602001828054610d039061204d565b8015610d505780601f10610d2557610100808354040283529160200191610d50565b820191906000526020600020905b815481529060010190602001808311610d3357829003601f168201915b505050505090806002018054610d659061204d565b80601f0160208091040260200160405190810160405280929190818152602001828054610d919061204d565b8015610dde5780601f10610db357610100808354040283529160200191610dde565b820191906000526020600020905b815481529060010190602001808311610dc157829003601f168201915b505050505090806003018054610df39061204d565b80601f0160208091040260200160405190810160405280929190818152602001828054610e1f9061204d565b8015610e6c5780601f10610e4157610100808354040283529160200191610e6c565b820191906000526020600020905b815481529060010190602001808311610e4f57829003601f168201915b5050505050908060040160009054906101000a900473ffffffffffffffffffffffffffffffffffffffff16908060050160009054906101000a900473ffffffffffffffffffffffffffffffffffffffff16908060060154908060070160009054906101000a900460ff16905088565b600080600060025481526020019081526020016000209050600254816000018190555083816001019080519060200190610f16929190611555565b5082816002019080519060200190610f2f929190611555565b5081816003019080519060200190610f48929190611555565b50338160040160006101000a81548173ffffffffffffffffffffffffffffffffffffffff021916908373ffffffffffffffffffffffffffffffffffffffff16021790555060008160050160006101000a81548173ffffffffffffffffffffffffffffffffffffffff021916908373ffffffffffffffffffffffffffffffffffffffff1602179055506000816006018190555060018160070160006101000a81548160ff021916908315150217905550600160025490806001815401808255809150506001900390600052602060002001600090919091909150557e1db5e7458a67b540692a02a277a1b8ba944bf0c60c5f9b4b507d4a19b325b06002548585856040516110589493929190611dc5565b60405180910390a1600260008154809291906110739061207f565b919050555050505050565b6110866114db565b600080600084815260200190815260200160002090508060405180610120016040529081600082015481526020016001820180546110c39061204d565b80601f01602080910402602001604051908101604052809291908181526020018280546110ef9061204d565b801561113c5780601f106111115761010080835404028352916020019161113c565b820191906000526020600020905b81548152906001019060200180831161111f57829003601f168201915b505050505081526020016002820180546111559061204d565b80601f01602080910402602001604051908101604052809291908181526020018280546111819061204d565b80156111ce5780601f106111a3576101008083540402835291602001916111ce565b820191906000526020600020905b8154815290600101906020018083116111b157829003601f168201915b505050505081526020016003820180546111e79061204d565b80601f01602080910402602001604051908101604052809291908181526020018280546112139061204d565b80156112605780601f1061123557610100808354040283529160200191611260565b820191906000526020600020905b81548152906001019060200180831161124357829003601f168201915b505050505081526020016004820160009054906101000a900473ffffffffffffffffffffffffffffffffffffffff1673ffffffffffffffffffffffffffffffffffffffff1673ffffffffffffffffffffffffffffffffffffffff1681526020016005820160009054906101000a900473ffffffffffffffffffffffffffffffffffffffff1673ffffffffffffffffffffffffffffffffffffffff1673ffffffffffffffffffffffffffffffffffffffff168152602001600682015481526020016007820160009054906101000a900460ff1615151515815260200160088201805480602002602001604051908101604052809291908181526020016000905b828210156113f157838290600052602060002090600202016040518060400160405290816000820160009054906101000a900473ffffffffffffffffffffffffffffffffffffffff1673ffffffffffffffffffffffffffffffffffffffff1673ffffffffffffffffffffffffffffffffffffffff1681526020016001820154815250508152602001906001019061135f565b5050505081525050915050919050565b6060600080838152602001908152602001600020600801805480602002602001604051908101604052809291908181526020016000905b828210156114ca57838290600052602060002090600202016040518060400160405290816000820160009054906101000a900473ffffffffffffffffffffffffffffffffffffffff1673ffffffffffffffffffffffffffffffffffffffff1673ffffffffffffffffffffffffffffffffffffffff16815260200160018201548152505081526020019060010190611438565b505050509050919050565b60025481565b60405180610120016040528060008152602001606081526020016060815260200160608152602001600073ffffffffffffffffffffffffffffffffffffffff168152602001600073ffffffffffffffffffffffffffffffffffffffff16815260200160008152602001600015158152602001606081525090565b8280546115619061204d565b90600052602060002090601f01602090048101928261158357600085556115ca565b82601f1061159c57805160ff19168380011785556115ca565b828001600101855582156115ca579182015b828111156115c95782518255916020019190600101906115ae565b5b5090506115d791906115db565b5090565b5b808211156115f45760008160009055506001016115dc565b5090565b600061160b61160684611ee3565b611eb2565b90508281526020810184848401111561162357600080fd5b61162e84828561200b565b509392505050565b600082601f83011261164757600080fd5b81356116578482602086016115f8565b91505092915050565b60008135905061166f81612166565b92915050565b60008060006060848603121561168a57600080fd5b600084013567ffffffffffffffff8111156116a457600080fd5b6116b086828701611636565b935050602084013567ffffffffffffffff8111156116cd57600080fd5b6116d986828701611636565b925050604084013567ffffffffffffffff8111156116f657600080fd5b61170286828701611636565b9150509250925092565b60006020828403121561171e57600080fd5b600061172c84828501611660565b91505092915050565b60006117418383611a8c565b905092915050565b60006117558383611c40565b60408301905092915050565b61176a81611fc3565b82525050565b61177981611fc3565b82525050565b600061178a82611f33565b6117948185611f6e565b9350836020820285016117a685611f13565b8060005b858110156117e257848403895281516117c38582611735565b94506117ce83611f54565b925060208a019950506001810190506117aa565b50829750879550505050505092915050565b60006117ff82611f3e565b6118098185611f7f565b935061181483611f23565b8060005b8381101561184557815161182c8882611749565b975061183783611f61565b925050600181019050611818565b5085935050505092915050565b600061185d82611f3e565b6118678185611f90565b935061187283611f23565b8060005b838110156118a357815161188a8882611749565b975061189583611f61565b925050600181019050611876565b5085935050505092915050565b6118b981611fd5565b82525050565b6118c881611fd5565b82525050565b60006118d982611f49565b6118e38185611fa1565b93506118f381856020860161201a565b6118fc81612155565b840191505092915050565b600061191282611f49565b61191c8185611fb2565b935061192c81856020860161201a565b61193581612155565b840191505092915050565b600061194d601683611fb2565b91507f4c65696c616f206e616f206573746120617469766f2e000000000000000000006000830152602082019050919050565b600061198d602f83611fb2565b91507f4f206c616e6365206465766520736572206d61696f7220717565206f206d616960008301527f6f72206c616e636520617475616c2e00000000000000000000000000000000006020830152604082019050919050565b60006119f3602e83611fb2565b91507f536f6d656e7465206f20646f6e6f20646f206c65696c616f20706f646520666560008301527f63686172206f206c65696c616f2e0000000000000000000000000000000000006020830152604082019050919050565b6000611a59601783611fb2565b91507f4c65696c616f206a612065737461206665636861646f2e0000000000000000006000830152602082019050919050565b600061012083016000830151611aa56000860182611c6f565b5060208301518482036020860152611abd82826118ce565b91505060408301518482036040860152611ad782826118ce565b91505060608301518482036060860152611af182826118ce565b9150506080830151611b066080860182611761565b5060a0830151611b1960a0860182611761565b5060c0830151611b2c60c0860182611c6f565b5060e0830151611b3f60e08601826118b0565b50610100830151848203610100860152611b5982826117f4565b9150508091505092915050565b600061012083016000830151611b7f6000860182611c6f565b5060208301518482036020860152611b9782826118ce565b91505060408301518482036040860152611bb182826118ce565b91505060608301518482036060860152611bcb82826118ce565b9150506080830151611be06080860182611761565b5060a0830151611bf360a0860182611761565b5060c0830151611c0660c0860182611c6f565b5060e0830151611c1960e08601826118b0565b50610100830151848203610100860152611c3382826117f4565b9150508091505092915050565b604082016000820151611c566000850182611761565b506020820151611c696020850182611c6f565b50505050565b611c7881612001565b82525050565b611c8781612001565b82525050565b60006020820190508181036000830152611ca7818461177f565b905092915050565b60006020820190508181036000830152611cc98184611852565b905092915050565b60006020820190508181036000830152611cea81611940565b9050919050565b60006020820190508181036000830152611d0a81611980565b9050919050565b60006020820190508181036000830152611d2a816119e6565b9050919050565b60006020820190508181036000830152611d4a81611a4c565b9050919050565b60006020820190508181036000830152611d6b8184611b66565b905092915050565b6000602082019050611d886000830184611c7e565b92915050565b6000606082019050611da36000830186611c7e565b611db06020830185611770565b611dbd6040830184611c7e565b949350505050565b6000608082019050611dda6000830187611c7e565b8181036020830152611dec8186611907565b90508181036040830152611e008185611907565b90508181036060830152611e148184611907565b905095945050505050565b600061010082019050611e35600083018b611c7e565b8181036020830152611e47818a611907565b90508181036040830152611e5b8189611907565b90508181036060830152611e6f8188611907565b9050611e7e6080830187611770565b611e8b60a0830186611770565b611e9860c0830185611c7e565b611ea560e08301846118bf565b9998505050505050505050565b6000604051905081810181811067ffffffffffffffff82111715611ed957611ed8612126565b5b8060405250919050565b600067ffffffffffffffff821115611efe57611efd612126565b5b601f19601f8301169050602081019050919050565b6000819050602082019050919050565b6000819050602082019050919050565b600081519050919050565b600081519050919050565b600081519050919050565b6000602082019050919050565b6000602082019050919050565b600082825260208201905092915050565b600082825260208201905092915050565b600082825260208201905092915050565b600082825260208201905092915050565b600082825260208201905092915050565b6000611fce82611fe1565b9050919050565b60008115159050919050565b600073ffffffffffffffffffffffffffffffffffffffff82169050919050565b6000819050919050565b82818337600083830152505050565b60005b8381101561203857808201518184015260208101905061201d565b83811115612047576000848401525b50505050565b6000600282049050600182168061206557607f821691505b60208210811415612079576120786120f7565b5b50919050565b600061208a82612001565b91507fffffffffffffffffffffffffffffffffffffffffffffffffffffffffffffffff8214156120bd576120bc6120c8565b5b600182019050919050565b7f4e487b7100000000000000000000000000000000000000000000000000000000600052601160045260246000fd5b7f4e487b7100000000000000000000000000000000000000000000000000000000600052602260045260246000fd5b7f4e487b7100000000000000000000000000000000000000000000000000000000600052604160045260246000fd5b6000601f19601f8301169050919050565b61216f81612001565b811461217a57600080fd5b5056fea2646970667358221220d1814ff390ded92cce3a495be83db31f7c4ee31c16e4d59f453f02540b9178c964736f6c63430008000033",
  "immutableReferences": {},
  "source": "// SPDX-License-Identifier: MIT\r\npragma solidity ^0.8.0;\r\n\r\ncontract AuctionSystem {\r\n    struct Auction {\r\n        uint id;\r\n        string name;\r\n        string description;\r\n        string imageURL;\r\n        address owner;\r\n        address highestBidder;\r\n        uint highestBid;\r\n        bool isActive;\r\n        Bid[] bidHistory;\r\n    }\r\n\r\n    struct Bid {\r\n        address bidder;\r\n        uint amount;\r\n    }\r\n\r\n    mapping(uint => Auction) public auctions;\r\n    uint[] public auctionIds;\r\n    uint public nextAuctionId;\r\n\r\n    event AuctionCreated(uint auctionId, string name, string description, string imageURL);\r\n    event NewBid(uint auctionId, address bidder, uint amount);\r\n    event AuctionClosed(uint auctionId, address winner, uint amount);\r\n\r\n    // Cria um novo leilo\r\n    function createAuction(string memory _name, string memory _description, string memory _imageURL) public {\r\n        Auction storage newAuction = auctions[nextAuctionId];\r\n        newAuction.id = nextAuctionId;\r\n        newAuction.name = _name;\r\n        newAuction.description = _description;\r\n        newAuction.imageURL = _imageURL;\r\n        newAuction.owner = msg.sender;\r\n        newAuction.highestBidder = address(0);\r\n        newAuction.highestBid = 0;\r\n        newAuction.isActive = true;\r\n        auctionIds.push(nextAuctionId);\r\n        emit AuctionCreated(nextAuctionId, _name, _description, _imageURL);\r\n        nextAuctionId++;\r\n    }\r\n\r\n    // Obter todos os leiles ativos\r\n    function getAllActiveAuctions() public view returns (Auction[] memory) {\r\n        uint activeCount = 0;\r\n        \r\n        // Contar quantos leiles esto ativos\r\n        for (uint i = 0; i < auctionIds.length; i++) {\r\n            if (auctions[auctionIds[i]].isActive) {\r\n                activeCount++;\r\n            }\r\n        }\r\n\r\n        Auction[] memory activeAuctions = new Auction[](activeCount);\r\n        uint index = 0;\r\n\r\n        // Adicionar leiles ativos ao array\r\n        for (uint i = 0; i < auctionIds.length; i++) {\r\n            if (auctions[auctionIds[i]].isActive) {\r\n                activeAuctions[index] = auctions[auctionIds[i]];\r\n                index++;\r\n            }\r\n        }\r\n\r\n        return activeAuctions;\r\n    }\r\n\r\n    // Fecha um leilo e transfere o prmio ao maior licitante\r\n    function closeAuction(uint _auctionId) public {\r\n        Auction storage auction = auctions[_auctionId];\r\n\r\n        require(auction.isActive, \"Leilao ja esta fechado.\");\r\n        require(msg.sender == auction.owner, \"Somente o dono do leilao pode fechar o leilao.\");\r\n\r\n        auction.isActive = false;\r\n        if (auction.highestBidder != address(0)) {\r\n            emit AuctionClosed(_auctionId, auction.highestBidder, auction.highestBid);\r\n        }\r\n    }\r\n\r\n    // Retorna informaes sobre um leilo especfico\r\n    function getAuction(uint _auctionId) public view returns (Auction memory) {\r\n        Auction storage auction = auctions[_auctionId];\r\n        return auction;\r\n    }\r\n\r\n    // Faz um lance em um leilo\r\n    function bid(uint _auctionId) public payable {\r\n        Auction storage auction = auctions[_auctionId];\r\n\r\n        require(auction.isActive, \"Leilao nao esta ativo.\");\r\n        require(msg.value > auction.highestBid, \"O lance deve ser maior que o maior lance atual.\");\r\n\r\n        // Se houver um lance anterior, devolver o valor ao anterior maior licitante\r\n        if (auction.highestBidder != address(0)) {\r\n            payable(auction.highestBidder).transfer(auction.highestBid);\r\n        }\r\n\r\n        auction.highestBidder = msg.sender;\r\n        auction.highestBid = msg.value;\r\n\r\n        // Registrar o lance no histrico\r\n        auction.bidHistory.push(Bid({\r\n            bidder: msg.sender,\r\n            amount: msg.value\r\n        }));\r\n\r\n        emit NewBid(_auctionId, msg.sender, msg.value);\r\n    }\r\n\r\n    // Retorna o histrico de lances de um leilo especfico\r\n    function getBidHistory(uint _auctionId) public view returns (Bid[] memory) {\r\n        return auctions[_auctionId].bidHistory;\r\n    }\r\n}\r\n",
  "sourcePath": "C:\\dev\\repos\\auction-blockchainWeb3\\contracts\\AuctionSystem.sol",
  "compiler": {
    "name": "solc",
    "version": "0.8.0+commit.c7dfd78e.Emscripten.clang"
  },
  "schemaVersion": "3.4.16",
  "updatedAt": "2024-07-24T19:39:16.477Z",
  "networkType": "ethereum",
  "devdoc": {
    "kind": "dev",
    "methods": {},
    "version": 1
  },
  "userdoc": {
    "kind": "user",
    "methods": {},
    "version": 1
  }
}