{
  "contractName": "ItemRegistry",
  "abi": [
    {
      "inputs": [
        {
          "internalType": "uint256",
          "name": "",
          "type": "uint256"
        }
      ],
      "name": "itemToOwner",
      "outputs": [
        {
          "internalType": "address",
          "name": "",
          "type": "address"
        }
      ],
      "stateMutability": "view",
      "type": "function",
      "constant": true
    },
    {
      "inputs": [
        {
          "internalType": "uint256",
          "name": "",
          "type": "uint256"
        }
      ],
      "name": "items",
      "outputs": [
        {
          "internalType": "string",
          "name": "title",
          "type": "string"
        },
        {
          "internalType": "string",
          "name": "description",
          "type": "string"
        },
        {
          "internalType": "string",
          "name": "image",
          "type": "string"
        },
        {
          "internalType": "address",
          "name": "auctionAddress",
          "type": "address"
        }
      ],
      "stateMutability": "view",
      "type": "function",
      "constant": true
    },
    {
      "inputs": [
        {
          "internalType": "string",
          "name": "_title",
          "type": "string"
        },
        {
          "internalType": "string",
          "name": "_description",
          "type": "string"
        },
        {
          "internalType": "string",
          "name": "_image",
          "type": "string"
        }
      ],
      "name": "registerItem",
      "outputs": [],
      "stateMutability": "nonpayable",
      "type": "function"
    },
    {
      "inputs": [
        {
          "internalType": "uint256",
          "name": "_itemId",
          "type": "uint256"
        },
        {
          "internalType": "address",
          "name": "_auctionAddress",
          "type": "address"
        }
      ],
      "name": "setAuctionAddress",
      "outputs": [],
      "stateMutability": "nonpayable",
      "type": "function"
    },
    {
      "inputs": [
        {
          "internalType": "uint256",
          "name": "_itemId",
          "type": "uint256"
        }
      ],
      "name": "getItem",
      "outputs": [
        {
          "components": [
            {
              "internalType": "string",
              "name": "title",
              "type": "string"
            },
            {
              "internalType": "string",
              "name": "description",
              "type": "string"
            },
            {
              "internalType": "string",
              "name": "image",
              "type": "string"
            },
            {
              "internalType": "address",
              "name": "auctionAddress",
              "type": "address"
            }
          ],
          "internalType": "struct ItemRegistry.Item",
          "name": "",
          "type": "tuple"
        }
      ],
      "stateMutability": "view",
      "type": "function",
      "constant": true
    },
    {
      "inputs": [],
      "name": "getItemCount",
      "outputs": [
        {
          "internalType": "uint256",
          "name": "",
          "type": "uint256"
        }
      ],
      "stateMutability": "view",
      "type": "function",
      "constant": true
    }
  ],
  "bytecode": "0x608060405234801561001057600080fd5b50610fc0806100206000396000f3fe608060405234801561001057600080fd5b50600436106100625760003560e01c80631a4d96cd146100675780633129e7731461009757806341a66946146100c75780637749cf23146100e3578063bfb231d214610101578063c7e1178e14610134575b600080fd5b610081600480360381019061007c9190610a9f565b610150565b60405161008e9190610c7a565b60405180910390f35b6100b160048036038101906100ac9190610a9f565b610183565b6040516100be9190610d0f565b60405180910390f35b6100e160048036038101906100dc9190610ac8565b6103f1565b005b6100eb610520565b6040516100f89190610d31565b60405180910390f35b61011b60048036038101906101169190610a9f565b61052c565b60405161012b9493929190610c95565b60405180910390f35b61014e60048036038101906101499190610a08565b610724565b005b60016020528060005260406000206000915054906101000a900473ffffffffffffffffffffffffffffffffffffffff1681565b61018b610895565b600082815481106101c5577f4e487b7100000000000000000000000000000000000000000000000000000000600052603260045260246000fd5b90600052602060002090600402016040518060800160405290816000820180546101ee90610e8c565b80601f016020809104026020016040519081016040528092919081815260200182805461021a90610e8c565b80156102675780601f1061023c57610100808354040283529160200191610267565b820191906000526020600020905b81548152906001019060200180831161024a57829003601f168201915b5050505050815260200160018201805461028090610e8c565b80601f01602080910402602001604051908101604052809291908181526020018280546102ac90610e8c565b80156102f95780601f106102ce576101008083540402835291602001916102f9565b820191906000526020600020905b8154815290600101906020018083116102dc57829003601f168201915b5050505050815260200160028201805461031290610e8c565b80601f016020809104026020016040519081016040528092919081815260200182805461033e90610e8c565b801561038b5780601f106103605761010080835404028352916020019161038b565b820191906000526020600020905b81548152906001019060200180831161036e57829003601f168201915b505050505081526020016003820160009054906101000a900473ffffffffffffffffffffffffffffffffffffffff1673ffffffffffffffffffffffffffffffffffffffff1673ffffffffffffffffffffffffffffffffffffffff16815250509050919050565b6001600083815260200190815260200160002060009054906101000a900473ffffffffffffffffffffffffffffffffffffffff1673ffffffffffffffffffffffffffffffffffffffff163373ffffffffffffffffffffffffffffffffffffffff1614610492576040517f08c379a000000000000000000000000000000000000000000000000000000000815260040161048990610cef565b60405180910390fd5b80600083815481106104cd577f4e487b7100000000000000000000000000000000000000000000000000000000600052603260045260246000fd5b906000526020600020906004020160030160006101000a81548173ffffffffffffffffffffffffffffffffffffffff021916908373ffffffffffffffffffffffffffffffffffffffff1602179055505050565b60008080549050905090565b6000818154811061053c57600080fd5b906000526020600020906004020160009150905080600001805461055f90610e8c565b80601f016020809104026020016040519081016040528092919081815260200182805461058b90610e8c565b80156105d85780601f106105ad576101008083540402835291602001916105d8565b820191906000526020600020905b8154815290600101906020018083116105bb57829003601f168201915b5050505050908060010180546105ed90610e8c565b80601f016020809104026020016040519081016040528092919081815260200182805461061990610e8c565b80156106665780601f1061063b57610100808354040283529160200191610666565b820191906000526020600020905b81548152906001019060200180831161064957829003601f168201915b50505050509080600201805461067b90610e8c565b80601f01602080910402602001604051908101604052809291908181526020018280546106a790610e8c565b80156106f45780601f106106c9576101008083540402835291602001916106f4565b820191906000526020600020905b8154815290600101906020018083116106d757829003601f168201915b5050505050908060030160009054906101000a900473ffffffffffffffffffffffffffffffffffffffff16905084565b60006040518060800160405280858152602001848152602001838152602001600073ffffffffffffffffffffffffffffffffffffffff16815250908060018154018082558091505060019003906000526020600020906004020160009091909190915060008201518160000190805190602001906107a39291906108d3565b5060208201518160010190805190602001906107c09291906108d3565b5060408201518160020190805190602001906107dd9291906108d3565b5060608201518160030160006101000a81548173ffffffffffffffffffffffffffffffffffffffff021916908373ffffffffffffffffffffffffffffffffffffffff16021790555050506000600160008054905061083b9190610dda565b9050336001600083815260200190815260200160002060006101000a81548173ffffffffffffffffffffffffffffffffffffffff021916908373ffffffffffffffffffffffffffffffffffffffff16021790555050505050565b6040518060800160405280606081526020016060815260200160608152602001600073ffffffffffffffffffffffffffffffffffffffff1681525090565b8280546108df90610e8c565b90600052602060002090601f0160209004810192826109015760008555610948565b82601f1061091a57805160ff1916838001178555610948565b82800160010185558215610948579182015b8281111561094757825182559160200191906001019061092c565b5b5090506109559190610959565b5090565b5b8082111561097257600081600090555060010161095a565b5090565b600061098961098484610d7d565b610d4c565b9050828152602081018484840111156109a157600080fd5b6109ac848285610e4a565b509392505050565b6000813590506109c381610f5c565b92915050565b600082601f8301126109da57600080fd5b81356109ea848260208601610976565b91505092915050565b600081359050610a0281610f73565b92915050565b600080600060608486031215610a1d57600080fd5b600084013567ffffffffffffffff811115610a3757600080fd5b610a43868287016109c9565b935050602084013567ffffffffffffffff811115610a6057600080fd5b610a6c868287016109c9565b925050604084013567ffffffffffffffff811115610a8957600080fd5b610a95868287016109c9565b9150509250925092565b600060208284031215610ab157600080fd5b6000610abf848285016109f3565b91505092915050565b60008060408385031215610adb57600080fd5b6000610ae9858286016109f3565b9250506020610afa858286016109b4565b9150509250929050565b610b0d81610e0e565b82525050565b610b1c81610e0e565b82525050565b6000610b2d82610dad565b610b378185610db8565b9350610b47818560208601610e59565b610b5081610f4b565b840191505092915050565b6000610b6682610dad565b610b708185610dc9565b9350610b80818560208601610e59565b610b8981610f4b565b840191505092915050565b6000610ba1602f83610dc9565b91507f4f6e6c7920746865206974656d206f776e65722063616e20736574207468652060008301527f61756374696f6e206164647265737300000000000000000000000000000000006020830152604082019050919050565b60006080830160008301518482036000860152610c178282610b22565b91505060208301518482036020860152610c318282610b22565b91505060408301518482036040860152610c4b8282610b22565b9150506060830151610c606060860182610b04565b508091505092915050565b610c7481610e40565b82525050565b6000602082019050610c8f6000830184610b13565b92915050565b60006080820190508181036000830152610caf8187610b5b565b90508181036020830152610cc38186610b5b565b90508181036040830152610cd78185610b5b565b9050610ce66060830184610b13565b95945050505050565b60006020820190508181036000830152610d0881610b94565b9050919050565b60006020820190508181036000830152610d298184610bfa565b905092915050565b6000602082019050610d466000830184610c6b565b92915050565b6000604051905081810181811067ffffffffffffffff82111715610d7357610d72610f1c565b5b8060405250919050565b600067ffffffffffffffff821115610d9857610d97610f1c565b5b601f19601f8301169050602081019050919050565b600081519050919050565b600082825260208201905092915050565b600082825260208201905092915050565b6000610de582610e40565b9150610df083610e40565b925082821015610e0357610e02610ebe565b5b828203905092915050565b6000610e1982610e20565b9050919050565b600073ffffffffffffffffffffffffffffffffffffffff82169050919050565b6000819050919050565b82818337600083830152505050565b60005b83811015610e77578082015181840152602081019050610e5c565b83811115610e86576000848401525b50505050565b60006002820490506001821680610ea457607f821691505b60208210811415610eb857610eb7610eed565b5b50919050565b7f4e487b7100000000000000000000000000000000000000000000000000000000600052601160045260246000fd5b7f4e487b7100000000000000000000000000000000000000000000000000000000600052602260045260246000fd5b7f4e487b7100000000000000000000000000000000000000000000000000000000600052604160045260246000fd5b6000601f19601f8301169050919050565b610f6581610e0e565b8114610f7057600080fd5b50565b610f7c81610e40565b8114610f8757600080fd5b5056fea26469706673582212209e98da39c8d8c33d096182baa7e951ef5108d38e30a38370bd615be185656b9564736f6c63430008000033",
  "immutableReferences": {},
  "source": "// SPDX-License-Identifier: MIT\r\npragma solidity ^0.8.0;\r\n\r\ncontract ItemRegistry {\r\n    struct Item {\r\n        string title;\r\n        string description;\r\n        string image;\r\n        address auctionAddress;\r\n    }\r\n\r\n    Item[] public items;\r\n    mapping(uint256 => address) public itemToOwner;\r\n\r\n    function registerItem(\r\n        string memory _title,\r\n        string memory _description,\r\n        string memory _image\r\n    ) public {\r\n        items.push(Item(_title, _description, _image, address(0)));\r\n        uint256 itemId = items.length - 1;\r\n        itemToOwner[itemId] = msg.sender;\r\n    }\r\n\r\n    function setAuctionAddress(uint256 _itemId, address _auctionAddress) public {\r\n        require(msg.sender == itemToOwner[_itemId], \"Only the item owner can set the auction address\");\r\n        items[_itemId].auctionAddress = _auctionAddress;\r\n    }\r\n\r\n    function getItem(uint256 _itemId) public view returns (Item memory) {\r\n        return items[_itemId];\r\n    }\r\n\r\n    function getItemCount() public view returns (uint256) {\r\n        return items.length;\r\n    }\r\n}\r\n",
  "sourcePath": "C:\\dev\\repos\\auction-blockchainWeb3\\contracts\\ItemRegistry.sol",
  "compiler": {
    "name": "solc",
    "version": "0.8.0+commit.c7dfd78e.Emscripten.clang"
  },
  "schemaVersion": "3.4.16",
  "updatedAt": "2024-07-22T17:42:24.414Z",
  "networkType": "ethereum",
  "devdoc": {
    "kind": "dev",
    "methods": {},
    "version": 1
  },
  "userdoc": {
    "kind": "user",
    "methods": {},
    "version": 1
  }
}