{
  "contractName": "ItemAuction",
  "abi": [
    {
      "inputs": [
        {
          "internalType": "uint256",
          "name": "_itemId",
          "type": "uint256"
        },
        {
          "internalType": "address",
          "name": "_owner",
          "type": "address"
        }
      ],
      "stateMutability": "nonpayable",
      "type": "constructor"
    },
    {
      "anonymous": false,
      "inputs": [
        {
          "indexed": false,
          "internalType": "address",
          "name": "winner",
          "type": "address"
        },
        {
          "indexed": false,
          "internalType": "uint256",
          "name": "amount",
          "type": "uint256"
        }
      ],
      "name": "AuctionEnded",
      "type": "event"
    },
    {
      "anonymous": false,
      "inputs": [
        {
          "indexed": false,
          "internalType": "address",
          "name": "bidder",
          "type": "address"
        },
        {
          "indexed": false,
          "internalType": "uint256",
          "name": "amount",
          "type": "uint256"
        }
      ],
      "name": "HighestBidIncreased",
      "type": "event"
    },
    {
      "inputs": [],
      "name": "ended",
      "outputs": [
        {
          "internalType": "bool",
          "name": "",
          "type": "bool"
        }
      ],
      "stateMutability": "view",
      "type": "function",
      "constant": true
    },
    {
      "inputs": [],
      "name": "highestBid",
      "outputs": [
        {
          "internalType": "uint256",
          "name": "",
          "type": "uint256"
        }
      ],
      "stateMutability": "view",
      "type": "function",
      "constant": true
    },
    {
      "inputs": [],
      "name": "highestBidder",
      "outputs": [
        {
          "internalType": "address",
          "name": "",
          "type": "address"
        }
      ],
      "stateMutability": "view",
      "type": "function",
      "constant": true
    },
    {
      "inputs": [],
      "name": "itemId",
      "outputs": [
        {
          "internalType": "uint256",
          "name": "",
          "type": "uint256"
        }
      ],
      "stateMutability": "view",
      "type": "function",
      "constant": true
    },
    {
      "inputs": [],
      "name": "owner",
      "outputs": [
        {
          "internalType": "address",
          "name": "",
          "type": "address"
        }
      ],
      "stateMutability": "view",
      "type": "function",
      "constant": true
    },
    {
      "inputs": [
        {
          "internalType": "address",
          "name": "",
          "type": "address"
        }
      ],
      "name": "pendingReturns",
      "outputs": [
        {
          "internalType": "uint256",
          "name": "",
          "type": "uint256"
        }
      ],
      "stateMutability": "view",
      "type": "function",
      "constant": true
    },
    {
      "inputs": [],
      "name": "bid",
      "outputs": [],
      "stateMutability": "payable",
      "type": "function",
      "payable": true
    },
    {
      "inputs": [],
      "name": "withdraw",
      "outputs": [
        {
          "internalType": "bool",
          "name": "",
          "type": "bool"
        }
      ],
      "stateMutability": "nonpayable",
      "type": "function"
    },
    {
      "inputs": [],
      "name": "auctionEnd",
      "outputs": [],
      "stateMutability": "nonpayable",
      "type": "function"
    }
  ],
  "bytecode": "0x608060405234801561001057600080fd5b50604051610c02380380610c02833981810160405281019061003291906100aa565b806000806101000a81548173ffffffffffffffffffffffffffffffffffffffff021916908373ffffffffffffffffffffffffffffffffffffffff160217905550816001819055505050610150565b60008151905061008f81610122565b92915050565b6000815190506100a481610139565b92915050565b600080604083850312156100bd57600080fd5b60006100cb85828601610095565b92505060206100dc85828601610080565b9150509250929050565b60006100f1826100f8565b9050919050565b600073ffffffffffffffffffffffffffffffffffffffff82169050919050565b6000819050919050565b61012b816100e6565b811461013657600080fd5b50565b61014281610118565b811461014d57600080fd5b50565b610aa38061015f6000396000f3fe6080604052600436106100865760003560e01c80633ccfd60b116100595780633ccfd60b146101145780638da5cb5b1461013f57806391f901571461016a578063ca6158cb14610195578063d57bde79146101c057610086565b806312fa6feb1461008b5780631998aeef146100b657806326b387bb146100c05780632a24f46c146100fd575b600080fd5b34801561009757600080fd5b506100a06101eb565b6040516100ad91906108c2565b60405180910390f35b6100be6101fe565b005b3480156100cc57600080fd5b506100e760048036038101906100e29190610702565b61039a565b6040516100f4919061095d565b60405180910390f35b34801561010957600080fd5b506101126103b2565b005b34801561012057600080fd5b50610129610573565b60405161013691906108c2565b60405180910390f35b34801561014b57600080fd5b50610154610697565b604051610161919061087e565b60405180910390f35b34801561017657600080fd5b5061017f6106bb565b60405161018c919061087e565b60405180910390f35b3480156101a157600080fd5b506101aa6106e1565b6040516101b7919061095d565b60405180910390f35b3480156101cc57600080fd5b506101d56106e7565b6040516101e2919061095d565b60405180910390f35b600560009054906101000a900460ff1681565b600560009054906101000a900460ff161561024e576040517f08c379a0000000000000000000000000000000000000000000000000000000008152600401610245906108dd565b60405180910390fd5b6003543411610292576040517f08c379a00000000000000000000000000000000000000000000000000000000081526004016102899061093d565b60405180910390fd5b6000600354146103175760035460046000600260009054906101000a900473ffffffffffffffffffffffffffffffffffffffff1673ffffffffffffffffffffffffffffffffffffffff1673ffffffffffffffffffffffffffffffffffffffff168152602001908152602001600020600082825461030f9190610989565b925050819055505b33600260006101000a81548173ffffffffffffffffffffffffffffffffffffffff021916908373ffffffffffffffffffffffffffffffffffffffff160217905550346003819055507ff4757a49b326036464bec6fe419a4ae38c8a02ce3e68bf0809674f6aab8ad3003334604051610390929190610899565b60405180910390a1565b60046020528060005260406000206000915090505481565b60008054906101000a900473ffffffffffffffffffffffffffffffffffffffff1673ffffffffffffffffffffffffffffffffffffffff163373ffffffffffffffffffffffffffffffffffffffff1614610440576040517f08c379a00000000000000000000000000000000000000000000000000000000081526004016104379061091d565b60405180910390fd5b600560009054906101000a900460ff1615610490576040517f08c379a0000000000000000000000000000000000000000000000000000000008152600401610487906108fd565b60405180910390fd5b6001600560006101000a81548160ff0219169083151502179055507fdaec4582d5d9595688c8c98545fdd1c696d41c6aeaeb636737e84ed2f5c00eda600260009054906101000a900473ffffffffffffffffffffffffffffffffffffffff16600354604051610500929190610899565b60405180910390a160008054906101000a900473ffffffffffffffffffffffffffffffffffffffff1673ffffffffffffffffffffffffffffffffffffffff166108fc6003549081150290604051600060405180830381858888f19350505050158015610570573d6000803e3d6000fd5b50565b600080600460003373ffffffffffffffffffffffffffffffffffffffff1673ffffffffffffffffffffffffffffffffffffffff168152602001908152602001600020549050600081111561068e576000600460003373ffffffffffffffffffffffffffffffffffffffff1673ffffffffffffffffffffffffffffffffffffffff168152602001908152602001600020819055503373ffffffffffffffffffffffffffffffffffffffff166108fc829081150290604051600060405180830381858888f1935050505061068d5780600460003373ffffffffffffffffffffffffffffffffffffffff1673ffffffffffffffffffffffffffffffffffffffff168152602001908152602001600020819055506000915050610694565b5b60019150505b90565b60008054906101000a900473ffffffffffffffffffffffffffffffffffffffff1681565b600260009054906101000a900473ffffffffffffffffffffffffffffffffffffffff1681565b60015481565b60035481565b6000813590506106fc81610a56565b92915050565b60006020828403121561071457600080fd5b6000610722848285016106ed565b91505092915050565b610734816109df565b82525050565b610743816109f1565b82525050565b6000610756601583610978565b91507f41756374696f6e20616c726561647920656e64656400000000000000000000006000830152602082019050919050565b6000610796602383610978565b91507f41756374696f6e20656e642068617320616c7265616479206265656e2063616c60008301527f6c656400000000000000000000000000000000000000000000000000000000006020830152604082019050919050565b60006107fc601583610978565b91507f596f7520617265206e6f7420746865206f776e657200000000000000000000006000830152602082019050919050565b600061083c601d83610978565b91507f546865726520616c7265616479206973206120686967686572206269640000006000830152602082019050919050565b61087881610a1d565b82525050565b6000602082019050610893600083018461072b565b92915050565b60006040820190506108ae600083018561072b565b6108bb602083018461086f565b9392505050565b60006020820190506108d7600083018461073a565b92915050565b600060208201905081810360008301526108f681610749565b9050919050565b6000602082019050818103600083015261091681610789565b9050919050565b60006020820190508181036000830152610936816107ef565b9050919050565b600060208201905081810360008301526109568161082f565b9050919050565b6000602082019050610972600083018461086f565b92915050565b600082825260208201905092915050565b600061099482610a1d565b915061099f83610a1d565b9250827fffffffffffffffffffffffffffffffffffffffffffffffffffffffffffffffff038211156109d4576109d3610a27565b5b828201905092915050565b60006109ea826109fd565b9050919050565b60008115159050919050565b600073ffffffffffffffffffffffffffffffffffffffff82169050919050565b6000819050919050565b7f4e487b7100000000000000000000000000000000000000000000000000000000600052601160045260246000fd5b610a5f816109df565b8114610a6a57600080fd5b5056fea264697066735822122012d99aa91d06e5484ba7dba540119522219ed377de64065341cdf1400b851cac64736f6c63430008000033",
  "immutableReferences": {},
  "source": "// SPDX-License-Identifier: MIT\r\npragma solidity ^0.8.0;\r\n\r\ncontract ItemAuction {\r\n    address public owner;\r\n    uint256 public itemId;\r\n    address public highestBidder;\r\n    uint256 public highestBid;\r\n    mapping(address => uint256) public pendingReturns;\r\n    bool public ended;\r\n\r\n    event HighestBidIncreased(address bidder, uint256 amount);\r\n    event AuctionEnded(address winner, uint256 amount);\r\n\r\n    constructor(uint256 _itemId, address _owner) {\r\n        owner = _owner;\r\n        itemId = _itemId;\r\n    }\r\n\r\n    function bid() public payable {\r\n        require(!ended, \"Auction already ended\");\r\n        require(msg.value > highestBid, \"There already is a higher bid\");\r\n\r\n        if (highestBid != 0) {\r\n            pendingReturns[highestBidder] += highestBid;\r\n        }\r\n\r\n        highestBidder = msg.sender;\r\n        highestBid = msg.value;\r\n        emit HighestBidIncreased(msg.sender, msg.value);\r\n    }\r\n\r\n    function withdraw() public returns (bool) {\r\n        uint256 amount = pendingReturns[msg.sender];\r\n        if (amount > 0) {\r\n            pendingReturns[msg.sender] = 0;\r\n\r\n            if (!payable(msg.sender).send(amount)) {\r\n                pendingReturns[msg.sender] = amount;\r\n                return false;\r\n            }\r\n        }\r\n        return true;\r\n    }\r\n\r\n    function auctionEnd() public {\r\n        require(msg.sender == owner, \"You are not the owner\");\r\n        require(!ended, \"Auction end has already been called\");\r\n\r\n        ended = true;\r\n        emit AuctionEnded(highestBidder, highestBid);\r\n\r\n        payable(owner).transfer(highestBid);\r\n    }\r\n}\r\n",
  "sourcePath": "C:\\dev\\repos\\auction-blockchainWeb3\\contracts\\ItemAuction.sol",
  "compiler": {
    "name": "solc",
    "version": "0.8.0+commit.c7dfd78e.Emscripten.clang"
  },
  "schemaVersion": "3.4.16",
  "updatedAt": "2024-07-22T21:10:45.811Z",
  "networkType": "ethereum",
  "devdoc": {
    "kind": "dev",
    "methods": {},
    "version": 1
  },
  "userdoc": {
    "kind": "user",
    "methods": {},
    "version": 1
  }
}